:020000040000FA
:04000000FEEF17F008
:102B8C0000EE01F0190EEE6AE806FDE1000EF86E9B
:102B9C000001DDEF15F01D6E000E1A6E1C50EFECEF
:102BAC0015F0010E1A6E1D50EFEC15F0120046ECEC
:102BBC0017F02EEC16F0DAEC16F0A9EC16F07CEC13
:102BCC0016F050EC16F00BEC17F0E1EF15F0FEEFF1
:102BDC0017F01B6E1AB0F5EF15F0F8EF15F08282B6
:102BEC00F9EF15F082921BC083FF82848294958E3C
:102BFC00828082928284829483BE07EF16F009EF62
:102C0C0016F000EF16F08290959E1200000E1A6ED0
:102C1C001E50EFEC15F01FEF16F0010E1A6E1CC0D3
:102C2C00F6FF1DC0F7FF0800F550EFEC15F01C4A3D
:102C3C001D2A1CC0F6FF1DC0F7FF0800F550000947
:102C4C00D8A42BEF16F02DEF16F013EF16F01200A0
:102C5C00939493861F0E6F166F8E800E6E18D8A4E9
:102C6C003AEF16F03CEF16F033EF16F0776AE10E00
:102C7C00706E1B0E716E030E726E0D01D46B0F0114
:102C8C00026B036B100E006F016B1F0E6F166F50F3
:102C9C00606A1200F50E1C6E2F0E1D6E890E1E6ED4
:102CAC000CEC16F0A60EE82EFED700D0180E1A6EFD
:102CBC00160E1B6E0E0E1C6E99EC17F00009D8B494
:102CCC006AEF16F06CEF16F07BEF16F0400E18184A
:102CDC001910D8A474EF16F076EF16F07BEF16F0FF
:102CEC00C90E1C6E0E50D1EC15F01200F80E1C6EB5
:102CFC002F0E1D6E860E1E6E0CEC16F0180E1A6E34
:102D0C00160E1B6E0E0E1C6E99EC17F00009D8B443
:102D1C0092EF16F094EF16F0A8EF16F0300E18188C
:102D2C001910D8A49CEF16F09EEF16F0A8EF16F031
:102D3C00C60E1C6E0E50D1EC15F0C70E1C6E0F504B
:102D4C00D1EC15F01200EF0E1C6E2F0E1D6E830EC3
:102D5C001E6E0CEC16F0A60EE82EFED700D0180E48
:102D6C001A6E160E1B6E0E0E1C6E99EC17F00009E7
:102D7C00D8B4C3EF16F0C5EF16F0D9EF16F0200E4D
:102D8C0018181910D8A4CDEF16F0CFEF16F0D9EF14
:102D9C0016F0C30E1C6E0E50D1EC15F0C40E1C6E4A
:102DAC000F50D1EC15F01200F20E1C6E2F0E1D6E92
:102DBC00800E1E6E0CEC16F0A60EE82EFED700D080
:102DCC00180E1A6E160E1B6E0E0E1C6E99EC17F06A
:102DDC000009D8B4F4EF16F0F6EF16F00AEF17F07E
:102DEC00100E18181910D8A4FEEF16F000EF17F0FB
:102DFC000AEF17F0C00E1C6E0E50D1EC15F0C10E80
:102E0C001C6E0F50D1EC15F01200EB0E1C6E2F0E39
:102E1C001D6E8C0E1E6E0CEC16F0A60EE82EFED758
:102E2C0000D0180E1A6E160E1B6E0E0E1C6E99EC40
:102E3C0017F00009D8B425EF17F027EF17F045EF7E
:102E4C0017F0500E18181910D8A42FEF17F031EFF7
:102E5C0017F045EF17F0CC0E1C6E0E50D1EC15F0A0
:102E6C00CD0E1C6E0F50D1EC15F0CE0E1C6E10500A
:102E7C00D1EC15F0CF0E1C6E1150D1EC15F01200E8
:102E8C00956A9450F80B946E8290C30E1C6ECD0E06
:102E9C00E82EFED71C2EFCD70000000E1A6E330E47
:102EAC00EFEC15F01B0E1C6E9E0EE82EFED71C2EA2
:102EBC00FCD700D0000E1A6E330EEFEC15F0A60EF8
:102ECC00E82EFED700D0000E1A6E330EEFEC15F084
:102EDC0000D000D00000000E1A6E020EEFEC15F0C0
:102EEC00A60EE82EFED700D0000E1A6E380EEFECB0
:102EFC0015F0A60EE82EFED700D0000E1A6E010EAD
:102F0C00EFEC15F0040E1C6E3E0EE82EFED71C2EB8
:102F1C00FCD7000E1A6E0C0EEFEC15F0A60EE82E78
:102F2C00FED700D0120060AE9EEF17F0A0EF17F0A6
:102F3C00F3EF17F063CF01F064CF02F061501D6E18
:102F4C001E6A1A50D96EDA6A1DC0DEFF1EC0DDFF84
:102F5C0065501D6E1E6A1B50D96EDA6A1DC0DEFFED
:102F6C001EC0DDFF1C50D96EDA6A66CFDFFF1C5025
:102F7C00D96EDA6A010ED92667CFDFFF1C50D96EE5
:102F8C00DA6A020ED92668CFDFFF1C50D96EDA6AD6
:102F9C00030ED92669CFDFFF1C50D96EDA6A040EF6
:102FAC00D9266ACFDFFF1C50D96EDA6A050ED926F6
:102FBC006BCFDFFF1C50D96EDA6A060ED9266CCFA8
:102FCC00DFFF1C50D96EDA6A070ED9266DCFDFFFF2
:102FDC00609EA490010EF4EF17F0000E1200005248
:102FEC00504D0047500053500049530045540000C9
:042FFC00C6EF15F017
:020000040020DA
:08000000FFFFFFFFFFFFFFFF00
:020000040030CA
:0E000000FF071F1FFF8285FF0FC00FE00F409C
:00000001FF
