:020000040000FA
:04000000FEEF3FF0E0
:0F0600000052504D004953004C004F0052000073
:100610000F01436B446B01C041FF426B03C045FFB8
:1006200005C0F6FF06C0F7FFF86A050EF76403D0B1
:100630000800F55005D0F6CFE9FFF7CFEAFFEF50FD
:100640000F01466F010E0524076E000E0620086E8E
:1006500007C0F6FF08C0F7FFF86A050EF76403D07D
:100660000800F55005D0F6CFE9FFF7CFEAFFEF50CD
:100670000F01476F020E0524076E000E0620086E5C
:1006800007C0F6FF08C0F7FFF86A050EF76403D04D
:100690000800F55005D0F6CFE9FFF7CFEAFFEF509D
:1006A0000F01486F030E0524076E000E0620086E2A
:1006B00007C0F6FF08C0F7FFF86A050EF76403D01D
:1006C0000800F55005D0F6CFE9FFF7CFEAFFEF506D
:1006D0000F01496F040E0524076E000E0620086EF8
:1006E00007C0F6FF08C0F7FFF86A050EF76403D0ED
:1006F0000800F55005D0F6CFE9FFF7CFEAFFEF503D
:100700000F014A6F050E0524076E000E0620086EC5
:1007100007C0F6FF08C0F7FFF86A050EF76403D0BC
:100720000800F55005D0F6CFE9FFF7CFEAFFEF500C
:100730000F014B6F060E0524076E000E0620086E93
:1007400007C0F6FF08C0F7FFF86A050EF76403D08C
:100750000800F55005D0F6CFE9FFF7CFEAFFEF50DC
:100760000F014C6F070E0524076E000E0620086E61
:1007700007C0F6FF08C0F7FFF86A050EF76403D05C
:100780000800F55005D0F6CFE9FFF7CFEAFFEF50AC
:100790000F014D6F408740B7D0EF03F0D2EF03F069
:1007A000CBEF03F01200010E2926000E2A222B2285
:1007B0002C22E90E291809E1030E2A182B102C10FF
:1007C000D8A4E5EF03F0E7EF03F05FEF04F0000ECD
:1007D000296E000E2A6E000E2B6E000E2C6E040E7B
:1007E000D0EC06F001C013F002C014F07C0E0F6EC6
:1007F000150E106E0F501302F3CF11F0F4CF12F05C
:100800001402F350122610501302F350122611C096
:1008100001F012C002F0030E046E0368D0EC05F084
:10082000DC0E01241A6E050E02201B6E1AC001F0A8
:100830001BC002F0030E046EE80E036ED0EC05F050
:100840000150300F156E000E046E640E036E1AC058
:1008500001F01BC002F0D0EC05F001C008F002C0AE
:1008600009F0000E0B6E0A0E0A6E7AEC06F00850C4
:10087000300F166E000E046E0A0E036E1AC001F0E1
:100880001BC002F0D0EC05F001C008F002C009F076
:10089000000E0B6E0A0E0A6E7AEC06F00850300F4E
:1008A000176E1AC008F01BC009F0000E0B6E0A0E7E
:1008B0000A6E7AEC06F00850300F186E196A010EB5
:1008C000036E0350D8A4060E046E8C0E056E44EC25
:1008D00006F0150E036E046ACC0E056E44EC06F0AD
:1008E000000E026E500E016E000E046E040E036EBA
:1008F000150E056E066A08EC03F01200819A818CD1
:10090000818E81B286EF04F088EF04F08BEF04F063
:10091000010E01EF05F081B490EF04F092EF04F0C6
:1009200095EF04F0040E01EF05F081B69AEF04F0A4
:100930009CEF04F09FEF04F0070E01EF05F081B883
:10094000A4EF04F0A6EF04F0A9EF04F00A0E01EF03
:1009500005F0818A819C818E81B2B1EF04F0B3EF02
:1009600004F0B6EF04F0020E01EF05F081B4BBEF26
:1009700004F0BDEF04F0C0EF04F0050E01EF05F048
:1009800081B6C5EF04F0C7EF04F0CAEF04F0080E1B
:1009900001EF05F081B8CFEF04F0D1EF04F0D4EF10
:1009A00004F00B0E01EF05F0818A818C819E819EFF
:1009B00081B2DDEF04F0DFEF04F0E2EF04F0030EAC
:1009C00001EF05F081B4E7EF04F0E9EF04F0ECEF9C
:1009D00004F0060E01EF05F081B6F1EF04F0F3EF3D
:1009E00004F0F6EF04F0090E01EF05F081B8FBEF1B
:1009F00004F0FDEF04F000EF05F00C0E01EF05F040
:100A0000FF0E1200010E0AEC06F0096E09500A6E84
:100A10000B6A0A040B10D8A410EF05F012EF05F0D2
:100A200016EF05F0010E346E2FEF05F0020E0A18D6
:100A30000B10D8A41EEF05F020EF05F023EF05F012
:100A4000346A2FEF05F0030E0A180B10D8A42BEF11
:100A500005F02DEF05F02FEF05F0020E346E340493
:100A6000D8A435EF05F037EF05F03DEF05F0000EA7
:100A70002E6E000E2D6E58EF05F03450D8A443EFC3
:100A800005F045EF05F04BEF05F0000E2E6E020E5F
:100A90002D6E58EF05F0020E3418D8A452EF05F071
:100AA00054EF05F058EF05F0000E2E6E010E2D6E7E
:100AB000050E036E0350D8A4060E046E890E056E53
:100AC00044EC06F0000E026E400E016E000E046E45
:100AD000010E036E2D50350FD96EDA6ADF50096EA4
:100AE00009C005F00550D8A4060E066E08EC03F008
:100AF000A60EE82EFED700D01200956A9450F80B8F
:100B0000946E8290C30E036ECD0EE82EFED7032E98
:100B1000FCD70000000E016E330EF3EC06F01B0E46
:100B2000036E9E0EE82EFED7032EFCD700D0000EDB
:100B3000016E330EF3EC06F0A60EE82EFED700D0C1
:100B4000000E016E330EF3EC06F000D000D0000072
:100B5000000E016E020EF3EC06F0A60EE82EFED794
:100B600000D0000E016E380EF3EC06F0A60EE82E53
:100B7000FED700D0000E016E010EF3EC06F0040E5D
:100B8000036E3E0EE82EFED7032EFCD7000E016E3C
:100B90000C0EF3EC06F0A60EE82EFED700D01200E5
:100BA000000E066E000E056E03500410D8B4DBEF85
:100BB00005F0DDEF05F005EF06F0010E076EE5EF3D
:100BC00005F0D89003360436072A04AEEAEF05F0A4
:100BD000ECEF05F0E1EF05F0D8900536063603504E
:100BE000015C04500258D8A0F8EF05F0FAEF05F0C8
:100BF000FFEF05F00350015E0450025A0580D890C3
:100C000004320332072EECEF05F005C001F006C0F8
:100C100002F01200016E0104D8A411EF06F013EFE8
:100C200006F036EF06F07EEC04F0336E3328D8B4CD
:100C30001CEF06F01EEF06F02AEF06F03950D8B48C
:100C400024EF06F026EF06F02AEF06F0396A33505B
:100C500043EF06F03328D8A430EF06F032EF06F069
:100C600042EF06F0010E396E42EF06F00150D8A4B3
:100C70003CEF06F03EEF06F042EF06F07EEC04F0AB
:100C800043EF06F0FF0E1200000E016E0550F3EC6C
:100C900006F061EF06F0010E016E03C0F6FF04C01E
:100CA000F7FFF86A050EF76403D00800F55005D089
:100CB000F6CFE9FFF7CFEAFFEF50F3EC06F0034A77
:100CC000042A03C0F6FF04C0F7FFF86A050EF764B4
:100CD00003D00800F55005D0F6CFE9FFF7CFEAFFC3
:100CE000EF500009D8A477EF06F079EF06F04BEF4C
:100CF00006F012000A500B10D8B481EF06F083EF13
:100D000006F0A7EF06F0010E0C6E8BEF06F0D89000
:100D10000A360B360C2A0BAE90EF06F092EF06F077
:100D200087EF06F00A50085C0B500958D8A09BEFDB
:100D300006F09DEF06F0A1EF06F00A50085E0B509A
:100D4000095AD8900B320A320C2E92EF06F008C0E6
:100D500008F009C009F01200939493861F0E6F16D5
:100D60006F8E800E6E18D8A4B8EF06F0BAEF06F0BA
:100D7000B1EF06F0776AE10E706E1B0E716E030E16
:100D8000726E010E0D01D46F0F01026B036B6B0EBF
:100D9000006FC00E016F1F0E6F166F8C606A12001D
:100DA000076E07C003F0D8900336D8900336C250C0
:100DB000C30B0310C26EC282C2B2E1EF06F0E3EFD2
:100DC00006F0DCEF06F0C350C4CF03F0046A03C0A2
:100DD00004F0036A0310056E0450066E05C001F0AE
:100DE00006C002F01200026E01B0F9EF06F0FCEF4F
:100DF00006F08282FDEF06F0829202C083FF8284B9
:100E00008294958E828082928284829483BE0BEF3C
:100E100007F00DEF07F004EF07F08290959E1200A7
:100E2000AA0EF66E0E0EF76E000EF86E00EE35F09E
:100E300010EE06F00900F5CFEEFFE550E150FAE1C3
:100E400000EE1CF0190EEE6AE806FDE1000EF86EE9
:100E5000000139EF07F0C08EC09AC088C096C090DC
:100E6000C082C094C292C19AC198C46AC36AC28047
:100E7000120043EC07F002EC05F0D3EC03F03BEF7B
:100E800007F0FEEF3FF02BEC07F07DEC05F0ACEC4B
:100E900006F04CEC07F012000F0EC16E1E0E936EA2
:100EA000F19E8150E009816E1200080C0A000101D8
:047FFC0010EF07F08B
:020000040020DA
:08000000FFFFFFFFFFFFFFFF00
:020000040030CA
:0E000000FF071F1FFF8285FF0FC00FE00F409C
:00000001FF
