:020000040000FA
:04000000FEEF17F008
:101AA800EC2FDD2FE02FE32FE62FE92FF52FF82F6E
:101AB8000F0EC16E1E0E936EF19E8150E009816E6D
:101AC80012005CEC0DF044EC0FF07AEC0DF0C8EC71
:101AD8000DF0120065EC0DF097EC0FF0F2EC0EF043
:101AE80021EC13F070EF0DF0FEEF17F0C08EC09AE6
:101AF800C088C096C090C082C094C292C19AC19852
:101B0800C46AC36AC2801200026E01B08EEF0DF083
:101B180091EF0DF0828292EF0DF0829202C083FF66
:101B280082848294958E828082928284829483BEFB
:101B3800A0EF0DF0A2EF0DF099EF0DF08290959EB9
:101B48001200076E07C003F0D8900336D89003360A
:101B5800C250C30B0310C26EC282C2B2B6EF0DF000
:101B6800B8EF0DF0B1EF0DF0C350C4CF03F0046A25
:101B780003C004F0036A0310056E0450066E05C026
:101B880001F006C002F01200939493861F0E6F16A0
:101B98006F8E800E6E18D8A4D4EF0DF0D6EF0DF02E
:101BA800CDEF0DF0776AE10E706E1B0E716E030EAD
:101BB800726E010E0D01D46F0F01026B036B6B0E79
:101BC800006FC00E016F1F0E6F166F50606A120013
:101BD800A80EF66E1A0EF76E000EF86E00EE60F0A4
:101BE80010EE10F00900F5CFEEFFE550E150FAE1F4
:101BF800000EF66E300EF76E000EF86E0900F5CF87
:101C08005FF000EE70F00D0EEE6AE806FDE100EE02
:101C180052F00D0EEE6AE806FDE1000EF86E0001C6
:101C28006EEF0DF00D500E10D8B41DEF0EF01FEF33
:101C38000EF043EF0EF0010E0F6E27EF0EF0D89066
:101C48000D360E360F2A0EAE2CEF0EF02EEF0EF0DC
:101C580023EF0EF00D500B5C0E500C58D8A037EF48
:101C68000EF039EF0EF03DEF0EF00D500B5E0E50FA
:101C78000C5AD8900E320D320F2E2EEF0EF00BC0EC
:101C88000BF00CC00CF01200000E016E055088EC31
:101C98000DF065EF0EF0010E016E03C0F6FF04C0F3
:101CA800F7FFF86A050EF76403D00800F55005D071
:101CB800F6CFE9FFF7CFEAFFEF5088EC0DF0034AC3
:101CC800042A03C0F6FF04C0F7FFF86A050EF7649C
:101CD80003D00800F55005D0F6CFE9FFF7CFEAFFAB
:101CE800EF500009D8A47BEF0EF07DEF0EF04FEF18
:101CF8000EF01200000E106E000E0F6E0D500E103A
:101D0800D8B489EF0EF08BEF0EF0B3EF0EF0010EA2
:101D1800116E93EF0EF0D8900D360E36112A0EAED6
:101D280098EF0EF09AEF0EF08FEF0EF0D8900F3676
:101D380010360D500B5C0E500C58D8A0A6EF0EF0C4
:101D4800A8EF0EF0ADEF0EF00D500B5E0E500C5AD2
:101D58000F80D8900E320D32112E9AEF0EF00FC070
:101D68000BF010C00CF01200016E0104D8A4BFEFF4
:101D78000EF0C1EF0EF0E4EF0EF0F8EC10F05E6E2E
:101D88005E28D8B4CAEF0EF0CCEF0EF0D8EF0EF004
:101D98005F50D8B4D2EF0EF0D4EF0EF0D8EF0EF0BB
:101DA8005F6A5E50F1EF0EF05E28D8A4DEEF0EF009
:101DB800E0EF0EF0F0EF0EF0010E5F6EF0EF0EF0B8
:101DC8000150D8A4EAEF0EF0ECEF0EF0F0EF0EF0B1
:101DD800F8EC10F0F1EF0EF0FF0E120020EE60F0BC
:101DE80010EE09F00F0EDBCFE3FFE806FCE2000E71
:101DF8001B6E000E1A6E010EB8EC0EF0196E190467
:101E0800D8A409EF0FF00BEF0FF00FEF0FF01A4AFD
:101E18001B2A27EF0FF0020E1918D8A416EF0FF09F
:101E280018EF0FF01AEF0FF027EF0FF0030E191845
:101E3800D8A421EF0FF023EF0FF027EF0FF0000EDB
:101E48001B6E070E1A6EEF0E036E2F0E046E830EB6
:101E5800056E48EC0EF0000E026E200E016E000EAC
:101E6800046E020E036E1A50020DF350090FD96E5C
:101E7800DA6ADECF05F0DDCF06F07CEC11F0120057
:101E8800956A9450F80B946E8290C30E036ECD0E33
:101E9800E82EFED7032EFCD70000000E016E330E8D
:101EA80088EC0DF01B0E036E9E0EE82EFED7032E57
:101EB800FCD700D0000E016E330E88EC0DF0A60E94
:101EC800E82EFED700D0000E016E330E88EC0DF020
:101ED80000D000D00000000E016E020E88EC0DF05C
:101EE800A60EE82EFED700D0000E016E380E88EC44
:101EF8000DF0A60EE82EFED700D0000E016E010EE2
:101F080088EC0DF0040E036E3E0EE82EFED7032E6D
:101F1800FCD7000E016E0C0E88EC0DF0A60EE82E14
:101F2800FED700D01200040EA5EC0DF001C00BF096
:101F380002C00CF0000E0E6E0A0E0D6E7EEC0EF056
:101F48000BC017F00CC018F0185009E1650E175CAB
:101F5800D8A0B1EF0FF0B3EF0FF0B7EF0FF0000E0E
:101F6800186E630E176E17C00BF018C00CF0000E39
:101F78000E6E0A0E0D6E16EC0EF00B50300F156E2D
:101F880017C00BF018C00CF0000E0E6E0A0E0D6E86
:101F98007EEC0EF00B50300F146E166AF20E036EC4
:101FA8002F0E046E800E056E48EC0EF0140E036EB4
:101FB800046AC00E056E48EC0EF0000E026E100E9C
:101FC800016E000E046E020E036E140E056E066A94
:101FD8007CEC11F017C012F018C013F01200000EBC
:101FE8000114096E000E02140A6E800E03140B6EA3
:101FF8007F0E04140C6E09500A100B100C10D8A494
:1020080008EF10F00AEF10F012EF10F0000E016E5A
:10201800000E026E000E036E000E046E000E051414
:10202800096E000E06140A6E800E07140B6E7F0EE2
:1020380008140C6E09500A100B100C10D8A427EFC6
:1020480010F029EF10F031EF10F0000E056E000EC1
:10205800066E000E076E000E086E04AE36EF10F026
:1020680038EF10F041EF10F0016C021ED8B0022AD0
:10207800031ED8B0032A800E045608AE46EF10F0AF
:1020880048EF10F051EF10F0056C061ED8B0062A84
:10209800071ED8B0072A800E0856000E011A000E37
:1020A800021A000E031A800E041A000E051A000EFA
:1020B800061A000E071A800E081A0550015C065011
:1020C80002580750035808500458D8B06EEF10F063
:1020D80070EF10F073EF10F0D89074EF10F0D88014
:1020E8001200033404340A6E0A50D8A47EEF10F0AC
:1020F80080EF10F08AEF10F0000E016E000E026EF5
:10210800000E036E000E046EF7EF10F001C005F02C
:1021180002C006F003C007F004C008F0200E9AEFD2
:1021280010F0D8900832073206320532E82E95EFC3
:1021380010F00550096E038EFF0E0116FF0E0216F1
:10214800FF0E0316000E0416960E0A5E0ABEB1EFC5
:1021580010F0AFEF10F0C7EF10F00A50800A970F99
:10216800D8B0B9EF10F0BBEF10F0BDEF10F080EF72
:1021780010F0D89004320332023201320A3EBDEF29
:1021880010F0DFEF10F01F0E0A64CDEF10F0CFEF64
:1021980010F0D7EF10F080EF10F0D890013602362B
:1021A800033604360A060A50D8A4DDEF10F0DFEF34
:1021B80010F0D1EF10F00950D8B4E5EF10F0E7EFC8
:1021C80010F0EFEF10F0041E031E021E016C000E4B
:1021D80002220322042201C001F002C002F003C05F
:1021E80003F004C004F01200819A818C818E81B2C0
:1021F80000EF11F002EF11F005EF11F0010E7BEF87
:1022080011F081B40AEF11F00CEF11F00FEF11F09B
:10221800040E7BEF11F081B614EF11F016EF11F0F8
:1022280019EF11F0070E7BEF11F081B81EEF11F0D6
:1022380020EF11F023EF11F00A0E7BEF11F0818AE5
:10224800819C818E81B22BEF11F02DEF11F030EFD0
:1022580011F0020E7BEF11F081B435EF11F037EF7A
:1022680011F03AEF11F0050E7BEF11F081B63FEF58
:1022780011F041EF11F044EF11F0080E7BEF11F06F
:1022880081B849EF11F04BEF11F04EEF11F00B0E42
:102298007BEF11F0818A818C819E819E81B257EFFC
:1022A80011F059EF11F05CEF11F0030E7BEF11F014
:1022B80081B461EF11F063EF11F066EF11F0060ED3
:1022C8007BEF11F081B66BEF11F06DEF11F070EF4D
:1022D80011F0090E7BEF11F081B875EF11F077EF6F
:1022E80011F07AEF11F00C0E7BEF11F0FF0E1200D7
:1022F8000F01436B446B01C041FF426B03C045FFB4
:1023080005C0F6FF06C0F7FFF86A050EF76403D0AC
:102318000800F55005D0F6CFE9FFF7CFEAFFEF50F8
:102328000F01466F010E0524076E000E0620086E89
:1023380007C0F6FF08C0F7FFF86A050EF76403D078
:102348000800F55005D0F6CFE9FFF7CFEAFFEF50C8
:102358000F01476F020E0524076E000E0620086E57
:1023680007C0F6FF08C0F7FFF86A050EF76403D048
:102378000800F55005D0F6CFE9FFF7CFEAFFEF5098
:102388000F01486F030E0524076E000E0620086E25
:1023980007C0F6FF08C0F7FFF86A050EF76403D018
:1023A8000800F55005D0F6CFE9FFF7CFEAFFEF5068
:1023B8000F01496F040E0524076E000E0620086EF3
:1023C80007C0F6FF08C0F7FFF86A050EF76403D0E8
:1023D8000800F55005D0F6CFE9FFF7CFEAFFEF5038
:1023E8000F014A6F050E0524076E000E0620086EC1
:1023F80007C0F6FF08C0F7FFF86A050EF76403D0B8
:102408000800F55005D0F6CFE9FFF7CFEAFFEF5007
:102418000F014B6F060E0524076E000E0620086E8E
:1024280007C0F6FF08C0F7FFF86A050EF76403D087
:102438000800F55005D0F6CFE9FFF7CFEAFFEF50D7
:102448000F014C6F070E0524076E000E0620086E5C
:1024580007C0F6FF08C0F7FFF86A050EF76403D057
:102468000800F55005D0F6CFE9FFF7CFEAFFEF50A7
:102478000F014D6F408740B744EF12F046EF12F05E
:102488003FEF12F01200096E0950D8B44EEF12F067
:1024980050EF12F072EF12F004BE57EF12F055EF42
:1024A80012F072EF12F001C005F002C006F003C08E
:1024B80007F004C008F0051E061E071E081E052AA0
:1024C800000E06220722082205C00BF006C00CF0F9
:1024D80007C00DF008C00EF07AEF12F001C00BF043
:1024E80002C00CF003C00DF004C00EF00150021041
:1024F80003100410D8A483EF12F085EF12F08FEFC9
:1025080012F0000E016E000E026E000E036E000E39
:10251800046E20EF13F0960E0A6E99EF12F00A2A55
:10252800D8900E320D320C320B32000E0B14056EA1
:10253800000E0C14066E000E0D14076EFE0E0E141F
:10254800086E0550061007100810D8A4AEEF12F058
:10255800B0EF12F093EF12F0BEEF12F00A2A010E5C
:102568000B26000E0C220D220E22D8900E320D32B0
:102578000C320B32000E0B14056E000E0C14066E96
:10258800000E0D14076EFF0E0E14086E055006108F
:1025980007100810D8A4D3EF12F0D5EF12F0B2EF5D
:1025A80012F0DDEF12F00A06D8900B360C360D3615
:1025B8000E360DBEE2EF12F0E4EF12F0ECEF12F07F
:1025C800020E0A60EAEF12F0ECEF12F0D7EF12F009
:1025D8000AB0F1EF12F0F3EF12F0F4EF12F00D9EE3
:1025E800D8900A320AC005F0066A076A086A05C068
:1025F80008F0076A066A056A05500B1206500C12A5
:1026080007500D1208500E120950D8B40EEF13F0EF
:1026180010EF13F018EF13F004BE17EF13F015EFD7
:1026280013F018EF13F00E8E0BC001F00CC002F07F
:102638000DC003F00EC004F01200474A482AE90E04
:10264800471807E1030E4818D8A42DEF13F02FEF11
:1026580013F002EF14F0060EA5EC0DF001C049F0DE
:1026680002C04AF0000E136E000E146EA00E156E16
:10267800400E166E49C001F04AC002F0036A046AAF
:10268800000E47EC12F001C00FF002C010F003C0BA
:1026980011F004C012F0D9EC15F00FC028F010C0EA
:1026A80029F011C02AF012C02BF0000E2C6EC00EBB
:1026B8002D6E7F0E2E6E440E2F6E11EC14F028C076
:1026C80043F029C044F02AC045F02BC046F043C06F
:1026D8000FF044C010F045C011F046C012F0000ED3
:1026E800136E000E146EC80E156E420E166ED9ECDF
:1026F80015F00FC04EF010C04FF011C050F012C0CE
:1027080051F04EC001F04FC002F050C003F051C06C
:1027180004F0000E056E000E066E900E076E410E58
:10272800086EF3EC0FF0D8A09CEF13F09EEF13F0B7
:10273800E6EF13F0000E016E000E026E000E036E3F
:10274800420E046E4EC005F04FC006F050C007F0B0
:1027580051C008F0F3EC0FF0D8A0B5EF13F0B7EFC5
:1027680013F0E6EF13F04EC001F04FC002F050C076
:1027780003F051C004F075EC10F001C00BF002C07A
:102788000CF0000E0E6E0A0E0D6E16EC0EF00B50CD
:10279800300F4C6E4EC001F04FC002F050C003F035
:1027A80051C004F075EC10F001C00BF002C00CF041
:1027B800000E0E6E0A0E0D6E7EEC0EF00B50300FF2
:1027C8004B6E4D6AD90E036E2F0E046E860E056E83
:1027D80048EC0EF04B0E036E046AC60E056E48EC0C
:1027E8000EF0000E026E300E016E000E046E020E28
:1027F800036E4B0E056E066A7CEC11F04EC001F0BC
:102808004FC002F050C003F051C004F075EC10F056
:1028180001C041F002C042F012002B50800B386E0C
:102828002B502B243F6E2AAE1CEF14F01EEF14F031
:102838001FEF14F03F803F50D8B425EF14F027EF76
:1028480014F03BEF14F03F28D8A42DEF14F02FEF2D
:1028580014F037EF14F0000E286E000E296E000EEB
:102868002A6E000E2B6E2A8E2B6A43EF14F0000E90
:10287800286E000E296E000E2A6E000E2B6E2F5049
:10288800800B381A2F502F24406E2EAE4EEF14F0C6
:1028980050EF14F051EF14F040804050D8B457EF87
:1028A80014F059EF14F06DEF14F04028D8A45FEF3E
:1028B80014F061EF14F069EF14F0000E2C6E000EA6
:1028C8002D6E000E2E6E000E2F6E2E8E2F6A75EF57
:1028D80014F0000E2C6E000E2D6E000E2E6E000EE3
:1028E8002F6E2C502D102E102F10D8A47EEF14F020
:1028F80080EF14F098EF14F0000E286E000E296E89
:10290800000E2A6E000E2B6E800E2A127F0E2B12DE
:1029180038502B1228C028F029C029F02AC02AF0E4
:102928002BC02BF0D8EF15F03F50D8A49EEF14F031
:10293800A0EF14F0AAEF14F0000E286E000E296E16
:10294800000E2A6E000E2B6ED8EF15F040503FC0D7
:1029580030F0316A305E000E315A7F0E3024396E05
:10296800000E31203A6E28C034F029C035F02AC054
:1029780036F02BC037F0000E286E000E296E000EC0
:102988002A6E000E2B6E000E3B6E000E3C6E000E83
:102998003D6E000E3E6E406A0AEF15F04050D8B406
:1029A800D8EF14F0DAEF14F0F1EF14F0D8903436D1
:1029B800353636363736D890283629362A362B36E5
:1029C8003EAEE9EF14F0EBEF14F0ECEF14F02880D2
:1029D800D8903B363C363D363E362C50345C2D5034
:1029E80035582E5036582F503758D8A0FEEF14F0CF
:1029F80000EF15F009EF15F03E8C2C50345E2D5089
:102A0800355A2E50365A2F50375A402A190E4064DC
:102A180010EF15F012EF15F0D2EF14F03450351016
:102A280036103710D8B41BEF15F01DEF15F035EF41
:102A380015F03B8035EF15F0D890283629362A3620
:102A48002B363EAE2AEF15F02CEF15F02DEF15F0D2
:102A58002880D8903B363C363D363E363906D8A0DD
:102A68003A062AAE3AEF15F03CEF15F020EF15F0D4
:102A7800406A3EAE42EF15F044EF15F068EF15F0EE
:102A8800FF0E3B14306EFF0E3C14316EFF0E3D14EA
:102A9800326E7F0E3E14336E3050311032103310C8
:102AA800D8B459EF15F05BEF15F05FEF15F0010E94
:102AB800406E68EF15F028A064EF15F066EF15F08A
:102AC80068EF15F05BEF15F04050D8B46EEF15F0D5
:102AD80070EF15F094EF15F0010E2826000E29224C
:102AE8002A222B222BA07BEF15F07DEF15F094EF17
:102AF80015F028C030F029C031F02AC032F02BC0C0
:102B080033F03334333232323132303230C028F09D
:102B180031C029F032C02AF033C02BF0394A3A2AA2
:102B28003ABE9FEF15F03A5008E13928D8A09FEF38
:102B380015F0A1EF15F0ACEF15F0000E3A6E3968FC
:102B4800000E286E000E296E000E2A6E000E2B6EE7
:102B58003ABEB9EF15F03A5006E13904D8B0B7EFEC
:102B680015F0B9EF15F0C6EF15F0000E3A6E000E2D
:102B7800396E000E286E000E296E000E2A6E000EA9
:102B88002B6E386A39C03FF03FA0CDEF15F0CFEF7C
:102B980015F0D2EF15F02A8ED3EF15F02A9ED890B3
:102BA8003F302B6E8CEF14F012001250800B1B6E0E
:102BB80012501224216E11AEE4EF15F0E6EF15F075
:102BC800E7EF15F021802150D8B4EDEF15F0EFEFC5
:102BD80015F002EF16F02128D8A4F5EF15F0F7EF5D
:102BE80015F0FFEF15F0000E0F6E000E106E000EC0
:102BF800116E000E126E118E0AEF16F0000E0F6E97
:102C0800000E106E000E116E000E126E1650800B24
:102C18001B1A16501624206E15AE15EF16F017EF76
:102C280016F018EF16F020802050D8B41EEF16F0DA
:102C380020EF16F033EF16F02028D8A426EF16F070
:102C480028EF16F030EF16F0000E136E000E146E1B
:102C5800000E156E000E166E158E3BEF16F0000E68
:102C6800136E000E146E000E156E000E166E2050B8
:102C7800D8B441EF16F043EF16F04BEF16F02150A1
:102C8800D8A449EF16F04BEF16F055EF16F0000EEA
:102C98000F6E000E106E000E116E000E126EEBEF2E
:102CA80017F015500F02F3CF26F0F4CF27F0265077
:102CB8001C6E1D6A1E6A1F6A2750226E236A246AC8
:102CC800256A14501002F3CF26F0F4CF27F02650CF
:102CD8001C26000E1D221E221F2227502226000E0F
:102CE80023222422252213501102F3CF26F0F4CFF9
:102CF80027F026501C26000E1D221E221F222750B8
:102D08002226000E2322242225221EC01FF01DC0C9
:102D18001EF01CC01DF01C6A13501002F3CF26F0E1
:102D2800F4CF27F026501C2627501D22000E1E2205
:102D3800000E1F2214500F02F3CF26F0F4CF27F015
:102D480026501C2627501D22000E1E22000E1F2270
:102D58001EC01FF01DC01EF01CC01DF01C6A1350C1
:102D68000F02F3CF26F0F4CF27F026501C26275069
:102D78001D22000E1E22000E1F2215501002F3CF36
:102D880026F0F4CF27F02650222627502322000EC3
:102D98002422000E252214501102F3CF26F0F4CF7E
:102DA80027F02650222627502322000E2422000E28
:102DB800252215501102F3CF26F0F4CF27F0265024
:102DC800176E2750186E196A1A6A19C01AF018C0B7
:102DD80019F017C018F0176A175022261850232226
:102DE800195024221A5025221CC017F01DC018F0B3
:102DF8001EC019F01FC01AF0190E08EF17F0D8906E
:102E08001A32193218321732E82E03EF17F017501A
:102E1800222618502322195024221A5025221EC077
:102E28001FF01DC01EF01CC01DF01C6A205021C0E0
:102E380017F0186A1726000E1822820E1724266E1D
:102E4800FF0E1820276E3EEF17F0D8902236233653
:102E5800243625361FAE33EF17F035EF17F036EF6F
:102E680017F02280D8901C361D361E361F362606CF
:102E7800D8A0270624AE43EF17F045EF17F029EF47
:102E880017F0206A1FAE4BEF17F04DEF17F071EFF8
:102E980017F0FF0E1C14176EFF0E1D14186EFF0E90
:102EA8001E14196E7F0E1F141A6E17501810191061
:102EB8001A10D8B462EF17F064EF17F068EF17F044
:102EC800010E206E71EF17F022A06DEF17F06FEF73
:102ED80017F071EF17F064EF17F02050D8B477EFC0
:102EE80017F079EF17F09DEF17F0010E2226000E6C
:102EF80023222422252225A084EF17F086EF17F03D
:102F08009DEF17F022C017F023C018F024C019F065
:102F180025C01AF01A341A3219321832173217C06B
:102F280022F018C023F019C024F01AC025F0264A50
:102F3800272A27BEA8EF17F0275008E12628D8A08F
:102F4800A8EF17F0AAEF17F0B4EF17F0000E226EF3
:102F5800000E236E800E246E7F0E256EE1EF17F0B3
:102F680027BEC1EF17F0275006E12604D8B0BFEFFF
:102F780017F0C1EF17F0CCEF17F0000E226E000E1D
:102F8800236E000E246E000E256E1B6AE1EF17F00B
:102F980026C021F0FF0E2216FF0E23167F0E2416E0
:102FA800000E251621A0DBEF17F0DDEF17F0DEEF9E
:102FB80017F0248ED8902130256E1B50251222C080
:102FC8000FF023C010F024C011F025C012F0120039
:102FD80000544D5000473100473200473300473412
:102FE80000473500474E00475000535000475200F5
:092FF80043530000ECEF0DF00161
:020000040020DA
:08000000FFFFFFFFFFFFFFFF00
:020000040030CA
:0E000000FF071F1FFF8285FF0FC00FE00F409C
:00000001FF
